:020000041000EA
:1000000000B5324B212058609868022188439860DF
:10001000D860186158612E4B002199600221596106
:100020000121F02299502B49196001219960352056
:1000300000F044F80222904214D00621196600F024
:1000400034F8196E01211966002018661A6600F04E
:100050002CF8196E196E196E052000F02FF8012189
:100060000842F9D1002199601B49196000215960AB
:100070001A491B48016001219960EB211966A021F2
:10008000196600F012F800219960164914480160C1
:100090000121996001BC002800D000471248134993
:1000A000086003C880F30888084703B5996A0420EC
:1000B0000142FBD001200142F8D103BD02B5186610
:1000C0001866FFF7F2FF186E186E02BD00000240BE
:1000D000000000180000070000035F00212200005C
:1000E000F4000018222000A00001001008ED00E03C
:1000F00000000000000000000000000074B24E7A12
:1001000000200420F7010010C3010010C5010010F9
:10011000C1010010C1010010C1010010C101001097
:10012000C1010010C1010010C1010010C701001081
:10013000C1010010C1010010C9010010CB01001065
:10014000CD010010CD010010CD010010CD01001037
:10015000CD010010CD010010CD010010CD01001027
:10016000CD010010CD010010CD010010CD01001017
:10017000CD010010CD010010CD010010CD01001007
:10018000CD010010CD010010CD010010CD010010F7
:10019000CD010010CD010010CD010010CD010010E7
:1001A000CD010010CD010010CD010010CD010010D7
:1001B000CD010010CD010010CD010010CD010010C7
:1001C00000BE00BE00BE00BE00BE00BEEFF3058054
:1001D000103800BEF2EB8871F83E0110183F011094
:1001E0003402001090A31AE700201F49086006C8D7
:1001F00081F3088810471D48006800282FD10DA4FE
:100200000ECC002902D000F012F8F9E71849194A7B
:10021000002000E001C19142FCD1174988471749ED
:1002200088471749884700BEFDE701C901C29A42C5
:10023000FBD37047183F0110C0000020B0250020FC
:10024000086401100000042000000420086401106C
:10025000001004200010042000000000704709482E
:1002600009F002F80047000008ED00E0000000D0AF
:10027000B0250020F0330020F17F00109D5D0010BC
:10028000AF7F00105756000006005250ABB36053CA
:10029000702C011006005250861C0302802C0110A5
:1002A000060052505422A29D8C2C01100500525081
:1002B000DE65F46808640110F8B5C0460448054BD3
:1002C00010B5834203D0044B002B00D0984710BDDB
:1002D000B0250020B0250020000000000648074996
:1002E000091A8B10C90FC91810B5491003D0044B57
:1002F000002B00D0984710BDB0250020B02500206D
:100300000000000010B5074C2378002B09D1FFF73F
:10031000D5FF054B002B02D0044800E000BF0123AD
:10032000237010BDB826002000000000981A0110AC
:10033000054B10B5002B03D00449054800E000BF71
:10034000FFF7CCFF10BDC04600000000BC26002017
:10035000981A0110F0B585B001900D0014004B689B
:100360000A2B01D005B0F0BD6B4910000CF082FEE5
:100370000028F7D06A68002A00D1A6E02B681B7815
:10038000303B9800C01840006A68012A00D8A0E0FD
:100390002B685B78303BC01809F09EFA02900391FD
:1003A0006A68022A00D898E02B689B78303B980056
:1003B000C01840006A68032A00D892E02B68DB78F6
:1003C000303BC01809F088FA06000F006A68052A59
:1003D00000D88AE02B685879303809F07DFA4F4A06
:1003E0004F4B09F000FA02000B003000390009F011
:1003F000D3F906000F006A68062A7AD92B68987923
:10040000303809F069FA474A474B09F0ECF9020025
:100410000B003000390009F0BFF906000F006A68D0
:10042000072A6AD92B68D879303809F055FA3F4A3B
:100430003F4B09F0D8F902000B003000390009F0F9
:10044000ABF906000F006A68082A5AD92B68187A97
:10045000303809F041FA374A374B09F0C4F9020045
:100460000B003000390009F097F906000F006A68A8
:10047000092A4AD92B68587A303809F02DFA2F4AC0
:100480002F4B09F0B0F902000B003000390009F0E1
:1004900083F900222B4B09F088F902000B00029827
:1004A000039909F079F906000F00274920000CF0A4
:1004B000E1FD00282DD10022244B3000390009F045
:1004C00092F9019B186359634CE7002120480CF016
:1004D0006BFC01211E480CF067FC02211C480CF04B
:1004E00063FC03211A480CF05FFC052118480CF04E
:1004F0005BFC062116480CF057FC072114480CF051
:1005000053FC082112480CF04FFC092110480CF054
:100510004BFC00220F4BD0E7E81C01109A999999E7
:100520009999B93F7B14AE47E17A843FFCA9F1D297
:100530004D62503F2D431CEBE2361A3FF168E388D1
:10054000B5F8E43E00004E40DC1A01100000F03F18
:10055000981A01100000F0BFF0B585B001900D00B1
:1005600014004B680B2B01D005B0F0BD7249100090
:100570000CF080FD0028F7D06A68002A00D1B0E0B6
:100580002B681B78303B642058436A68012A00D8E6
:10059000ABE02B685A78303A93009B185B00C01888
:1005A0006A68022A00D8A4E02B689B78303BC01808
:1005B00009F092F9029003916A68032A00D89CE03E
:1005C0002B68DB78303B9800C01840006A68042A2A
:1005D00000D896E02B681B79303BC01809F07CF9F5
:1005E00006000F006A68062A00D88EE02B6898790A
:1005F000303809F071F9514A514B09F0F4F8020012
:100600000B003000390009F0C7F806000F006A68D7
:10061000072A7ED92B68D879303809F05DF9494A24
:10062000494B09F0E0F802000B003000390009F0F6
:10063000B3F806000F006A68082A6ED92B68187A8A
:10064000303809F049F9414A414B09F0CCF8020031
:100650000B003000390009F09FF806000F006A68AF
:10066000092A5ED92B68587A303809F035F9394AA9
:10067000394B09F0B8F802000B003000390009F0DE
:100680008BF806000F006A680A2A4ED92B68987A00
:10069000303809F021F9314A314B09F0A4F8020051
:1006A0000B003000390009F077F800222D4B09F0DB
:1006B0007CF802000B000298039909F06DF806001F
:1006C0000F00294920000CF0D5FC002831D1002270
:1006D000264B3000390009F086F8019B9863D963F6
:1006E00042E7002122480CF05FFB012120480CF07A
:1006F0005BFB02211E480CF057FB03211C480CF049
:1007000053FB04211A480CF04FFB062118480CF04B
:100710004BFB072116480CF047FB082114480CF04E
:1007200043FB092112480CF03FFB0A2110480CF052
:100730003BFB00220F4BCCE7E81C01109A999999DA
:100740009999B93F7B14AE47E17A843FFCA9F1D275
:100750004D62503F2D431CEBE2361A3FF168E388AF
:10076000B5F8E43E00004E40582B01100000F03F69
:10077000981A01100000F0BF436D224A93423ED008
:10078000826D20498A423AD0082B3ADC1B2A33DD9D
:10079000C36D8B4206D01D2A0BDC022B04D0013224
:1007A00082652EE081652CE00133C365023B8365E1
:1007B00027E01E2A06D00C2B14D00133C365012379
:1007C00083651EE0042B08D0062B06D0092B04D02D
:1007D0000B2B02D00132826513E00133C365012384
:1007E00083650EE0036E074A934201D0013303662E
:1007F00001238365C36504E00132826501E0014B9A
:100800008365704700FCFFFFF0B583B006000F0062
:1008100014001D000DF060FE036800930DF05CFEF7
:1008200000230360089A01A92000B0470600019B3D
:10083000A34211D00DF050FE0368222B0FD0002DE3
:1008400002D0019B1C1B2C600DF046FE0368002BA0
:1008500008D0300003B0F0BD38000CF05DFA38006D
:100860000CF08AFA009C0DF037FE0460F1E7F0B559
:1008700083B006000F0014001D000DF02DFE03686C
:1008800000930DF029FE0023036001A92000B0476A
:10089000061C019BA34211D00DF01EFE0368222B03
:1008A0000FD0002D02D0019B1C1B2C600DF014FEFC
:1008B0000368002B08D0301C03B0F0BD38000CF0EA
:1008C0002BFA38000CF058FA009C0DF005FE04607D
:1008D000F1E770B50C00150004E001CC802189001F
:1008E00009F08EFDAC42F8D370BD10B5040003686A
:1008F000002B09D0436A1A1D4169FFF7EAFF6368BC
:100900009900206809F07CFD200010BD10B588B06A
:10091000040083680093C3680193036902934369E9
:10092000039383690493C3690593036A0693436A37
:100930000793FFF7DAFF200008B010BD10B50400E0
:1009400080218900C06809F05BFD63691A1D62613E
:100950005B68E360802292009A182261A36010BD58
:1009600010B50400406909E01A0008321A6000223C
:100970005A601A7218339942F6D10430636A83427E
:1009800004D903681900F931FF31F4E7E369A1697B
:10099000994207D01A0008321A6000225A601A726F
:1009A0001833F5E710BD000070B582B005000E1ECB
:1009B0000DD0941B01940F2C0ED82868012C14D054
:1009C000002C14D02200310009F00CFD0FE0914200
:1009D000EFD00B480CF088F9002201A928000CF098
:1009E000D1FA2860019BAB60E7E733780370019A86
:1009F0006A602B689B1800221A7002B070BDC04656
:100A0000E01A011070B50C00150004E08020800091
:100A100009F0EEFC01C4AC42F8D370BDF0B583B070
:100A200004000F004B0A5D1C08220092033301935F
:100A3000082B2BD86B461868606080239B05984272
:100A400026D2800009F0D4FC060020606368581BA1
:100A5000400880003618AD0075192A0031002000CA
:100A6000FFF7D0FF66613368E360802080001A18CA
:100A70002261043D65622968E1610A182262A3606F
:100A8000FF05FF0DCF19A76103B0F0BD01ABD2E7A1
:100A90000CF01AF910B50400002303604360836072
:100AA000C360036143618361C361036243620021E8
:100AB000FFF7B4FF200010BD70B504000D00012841
:100AC00005D0002C02D10A4B9D420AD070BD084BC4
:100AD0009942F6D10748FFF7DDFF0748FFF7DAFF35
:100AE000EFE70548FFF712FF0248FFF70FFFEDE7BA
:100AF000FFFF0000282700205027002070B50C00C1
:100B0000150004E001CCFC21490009F079FCAC425D
:100B1000F8D370BD10B504000368002B09D0436AF8
:100B20001A1D4169FFF7EAFF63689900206809F020
:100B300067FC200010BDF0B5C64600B5884617001A
:100B4000CB681E1D0DE01834A54209D02068230093
:100B500008339842F7D0A368591C09F051FCF2E71A
:100B60000436FB68B34204D934682500F935FF35F3
:100B7000EAE74246D268934220D043461C689D680B
:100B800000E01834A54209D02068230008339842B9
:100B9000F7D0A368591C09F033FCF2E77C683D6884
:100BA00000E01834A5421AD0206823000833984288
:100BB000F7D0A368591C09F023FCF2E743461C68F0
:100BC0003D6800E01834A54209D0206823000833AE
:100BD0009842F7D0A368591C09F012FCF2E780BCD8
:100BE000B846F0BD70B50C00150004E0FC204000D4
:100BF00009F0FEFB01C4AC42F8D370BDF0B583B080
:100C000004000F001521380008F082FB451C082362
:100C1000009303300190082833D86B461868606051
:100C200080239B0598422ED2800009F0E1FB06004C
:100C300020606368581B400880003618AD007519A5
:100C40002A0031002000FFF7CDFF66613368E360C2
:100C50001A00F932FF322261043D65622D68E561B8
:100C60002A00F932FF322262A3601521380008F011
:100C70004FFB0B004900C918C9006D18A56103B0EE
:100C8000F0BD01ABCAE70CF01FF8F0B5CE46474601
:100C900080B583B0040001919046426A4169571AB9
:100CA000BD1001350198451963686E00B3421FD924
:100CB00026685B1B5B089B004546002D01D0850024
:100CC00000E000255D197519A94207D9131D5A1AAC
:100CD000994236D028000DF0F7FE32E0131D381D82
:100CE00028185A1A99422CD0801A0DF0EDFE28E0EF
:100CF000221D984238D816689E19023680239B051B
:100D00009E4233D2B00009F073FB8146751B6D081B
:100D1000AD004346002B2BD0019B9B00ED184D44AA
:100D20006169636A04335A1A994202D028000DF0AF
:100D3000CBFE63689900206809F062FB4B46236094
:100D4000666065612B68E36080229200944663448C
:100D50002361ED1965622B68E3616344236203B08C
:100D6000C0BCB946B046F0BD01AAC4E70BF0ACFF69
:100D70000023D3E7F8B507000200436A183244693C
:100D80001B1B9B10013B5B0252688469A21A9B18D3
:100D900002698068121A9B18144AD31A8B420ED328
:100DA000134B9C4661444E0A721C7B6A39685B1A7D
:100DB0009B107968CB1A9A4204D8012412E00D489E
:100DC0000BF0C2FF002231003800FFF75EFFF4E7AE
:100DD000A5007B6A9C4665448020800009F008FBE2
:100DE00028600134B442F3D9F8BDC046FFFFFF7F4D
:100DF000FF0100000C1B0110F8B507000200436A58
:100E0000183244691B1B9B10013B5B0252688469CA
:100E1000A21A9B1802698068121A9B18124AD31AE8
:100E20008B420BD3114B9C4661444E0A7B693A6856
:100E30009B1A9B109E4204D8012411E00C480BF031
:100E400083FF012231003800FFF71FFFF4E7A50000
:100E50007B695D1B8020800009F0CAFA286001349C
:100E6000B442F4D9F8BDC046FFFFFF7FFF01000088
:100E70002C1B011070B504000D000200436A1832EB
:100E800040691B1A9B10013B5B025268A069821AE1
:100E90009B182269A168521A9B18144A93421BD0CE
:100EA000636A22689B1A9B106268D31A012B16D9B9
:100EB000666A8020800009F09BFA70602B78A26936
:100EC0001370636A1A1D62625B68E361802292009C
:100ED0009A182262A36170BD05480BF035FF00220D
:100EE00001212000FFF7D1FEE2E7C046FFFFFF7FB0
:100EF0004C1B011010B586B004008269036A013BE7
:100F00009A4214D00B781370836901338361A2690C
:100F10000292E3690393216A0491616A0191059148
:100F20009A4207D0029B581E029006B010BDFFF7F0
:100F3000A1FFECE70B00043B05931B6803938022A1
:100F400092009446634404930293EBE710B582B099
:100F500011E06B4606331B786A46D11D0B70134CAB
:100F60002000FFF7C7FFA3682269013A934217D018
:100F700001330E4A93600E4B9B6910210A001A4000
:100F8000194211D16B46991D002AE2D1084B9B6989
:100F9000DB06FBD4064B1B680B7001320131F3E713
:100FA0000248FFF7CBFCE6E702B010BD282700207F
:100FB0000040034010B582B011E06B4606331B7849
:100FC0006A46D11D0B70134C2000FFF793FFA368F6
:100FD0002269013A934217D001330E4A93600E4BB7
:100FE0009B6910210A001A40194211D16B46991DC4
:100FF000002AE2D1084B9B69DB06FBD4064B1B6839
:101000000B7001320131F3E70248FFF797FCE6E786
:1010100002B010BD5027002000800340F0B5CE463E
:10102000474680B583B0040001919046426A416909
:10103000571ABD1001350198451963686E00B34217
:101040001FD926685B1B5B089B004546002D01D01D
:10105000850000E000255D197519A94207D9131D07
:101060005A1A994236D028000DF02EFD32E0131D99
:10107000381D28185A1A99422CD0801A0DF024FDD8
:1010800028E0221D984237D816689E190236802320
:101090009B059E4232D2B00009F0AAF98146751B29
:1010A0006D08AD004346002B2AD0019B9B00ED1834
:1010B0004D446169636A04335A1A994202D0280088
:1010C0000DF002FD63689900206809F099F94B461C
:1010D0002360666065612B68E360F933FF33236149
:1010E000ED1965622B68E361F933FF33236203B0C6
:1010F000C0BCB946B046F0BD01AAC5E70BF0E4FD9F
:101100000023D4E7F8B504000D00436A1830626983
:101110009B1A9B10013B5A00D318DA00D31A40687F
:10112000A269101AC0108200121816019219160234
:10113000921916049219520012189A182369A1687C
:101140005B1AD9108B005B1818011B1818021B18AA
:1011500018041B185B005B18D2181E4B9A422AD049
:10116000636A22689B1A9B106268D31A012B25D9E7
:10117000666AFC20400009F03BF97060A669300007
:10118000083030602B682F000837BB421CD033601A
:10119000AB68B3606B6873602F6000236B602B7269
:1011A000636A1A1D62625B68E3611A00F932FF32FA
:1011B0002262A361F8BD08480BF0C6FD00220121A0
:1011C0002000FFF72BFFD3E71022390009F00AF9BE
:1011D000E0E7C046555555054C1B0110F0B587B0EA
:1011E00004000D008669036A183B9E4228D0300037
:1011F000083030600B680F000837BB421BD03360EB
:101200008B68B3606B6873602F6000236B602B7218
:10121000A3691833A361A2690292E3690393216A67
:101220000491616A019105919A420CD00298183894
:10123000029007B0F0BD1022390009F0D3F8E1E7C1
:10124000FFF760FFE7E70B00043B05931B68039380
:10125000F933FF3304930293E8E7F0B583B0070056
:101260001C00521A00921EE001AB26E00DF02CFC8F
:1012700028E0002A32DDD317DB05DB0D9B185B125B
:101280009900E06884466144E160096861608020FB
:1012900080000818A0605B02D31ACB182360009B63
:1012A0005D1B00953100009A002A1BDDA3682068B1
:1012B0001B1A01939A42D7DC6B461D684E192068B1
:1012C0002A1ED3D1236862689A1AAA18D1D4802121
:1012D00089008A42CDDA5B192360E0E7D3435B0AD9
:1012E000DB43CDE723683B6063687B60A368BB603A
:1012F000E368FB60380003B0F0BDF0B5C64600B54A
:101300009AB080460D0017001C00CB68D26893424B
:1013100043D02368069363680793A3680893E36840
:10132000099302AE06AB8A6809683000FFF795FFA3
:10133000230007CE07C332681A60EE68043615E052
:1013400002CE23680E9363680F93A3681093E3683B
:1013500011930AAD80239B00CA180EAB2800FFF73B
:101360007CFF230007CD07C32A681A60FB68B342DD
:10137000E6D179683A682368129363681393A36887
:101380001493E3680193159312AB4046FFF765FF92
:1013900040461AB080BCB846F0BD09683A68236878
:1013A000169363681793A3681893E36801931993DE
:1013B00016ABFFF752FFEBE710B58EB004000868DC
:1013C00002904868039088680490C968019105916B
:1013D000116806915168079191680891D26801924D
:1013E00009921A680A925A680B929A680C92DB6802
:1013F00001930D930AAB06AA02A92000FFF77DFF17
:1014000020000EB010BDF0B5DE4657464E464546AC
:10141000E0B5D7B0019098460B689C4602934B68A4
:1014200003938F680497CE680596156806955068F3
:10143000079091680891D268099244462468A346AF
:101440000A9444466468A2460B944446A468A146A4
:101450000C944446E468A0460D9464461694179391
:101460001897199612951390149115925C460E9444
:1014700054460F944C46109444461194644622946A
:101480002393249725961E951F90209121925C46C8
:101490001A9454461B944C461C9444461D9464462E
:1014A00032943393349735963694379338973996E8
:1014B0002A952B902C912D922E952F903091319230
:1014C0005C462694544627944C46289444462994D6
:1014D00064464A944B934C974D964E944F93509735
:1014E0005196429543904491459246954790489134
:1014F00049925B463A9353463B934B463C93434653
:101500003D935B463E9353463F934B464093434641
:1015100041933EAB46AA4EA952A8FFF74DFF529BFE
:10152000019A1360539B01935360549B0193936002
:10153000559BD360100057B0F0BCBB46B246A946DD
:10154000A046F0BD70B504000D001600C368CA685F
:1015500093421ED00068A36831781A1A834202D1E0
:10156000E468043408E008F037FFF9E701CC31788B
:101570008022920008F030FFEB68A342F6D868683A
:101580002B6831781A1A834200D170BD08F024FF0D
:10159000FBE700680B6831781A1A8342F5D008F02F
:1015A0001BFFF2E7F0B5DE4657464E464546E0B52E
:1015B000B1B004000D1E06D131B0F0BCBB46B2463E
:1015C000A946A046F0BD036A8269991A01398D4285
:1015D00011D8A1690391E3690493226A0592626AB2
:1015E0000692CB1AEB180AD480229200934206DAB4
:1015F000491903911BE0691AFFF7BCFBE9E7002BCF
:101600006EDDDA17D205D20DD21852120699019169
:1016100091000198844661440691096804918020F4
:1016200080000818059052029A1A8A180392A3693A
:101630000793E3699C460893236A9B460993676A6C
:101640000A9703AD039E0B9604980C9005990D9193
:10165000069B9A460E93A3691393634614935B46C5
:10166000159316970F961090119153461293A369F4
:101670001B9363461C935B461D931E971796189009
:10168000199153461A93A3692493634625935B46A5
:1016900026932797209621902291534623937723D0
:1016A00002AA9046434498460023994643464A4638
:1016B0001A70A3692C9363462D935B462E932F9744
:1016C000289629902A9153462B93424628A92CA864
:1016D000FFF738FF18340ECD0EC42B6823606BE77C
:1016E000DA43520AD24391E7F0B5CE4600B58EB048
:1016F00004000F0091461D0008234361073B8361EE
:1017000000210177C8239B00836200226B4B026398
:1017100043638263C3636A4B036443648364694EB7
:10172000C664066546658665C66506666830A16658
:1017300041608160C160016141618161C16101629B
:101740004162FFF76BF967604B46A360E560149B4D
:101750002361002F5AD05C482060149906F0A4F948
:101760000221484604F09AFB0221280004F096FB6F
:10177000226811003031126BC0231B021A408023F3
:101780005B010B431A60237FA2696169206806F040
:1017900061F9002F3CD04D4EA26A3100736A1831B6
:1017A00075695B1B9B10013B5B024968B569691A4F
:1017B0005B183169B068091A59188A422AD82ED3A1
:1017C000434B22689A4200D174E015202062002F1A
:1017D00000D171E03F4904F0A7FC0121206A04F028
:1017E00079FC1499206806F007F922685023936366
:1017F00011003431536B38221A4080235B010B43B4
:101800001A6020000EB080BCB946F0BD3048A3E796
:10181000314EC1E7511A3000FFF7C4FED0E7B1687E
:101820000291F06803903369049373690593081A71
:10183000101806D480239B00984202DA891802917E
:1018400017E0002832DDC317DB05DB0D1B185B1228
:10185000059A01929A0001998C4662440592126899
:10186000039280218900511804915B02C31AD31896
:10187000029302AD029B0A93039B0B93049B0C9370
:1018800005990D91B3690693F3690793336A089339
:10189000726A0992043204313000FFF71AF81836E0
:1018A0002B0007CB07C61B68336089E7C3435B0A7D
:1018B000DB43CDE7142089E708498CE7000090C09E
:1018C000000080C400FCFFFF008003405027002080
:1018D00000400340B50F0010282700204D0F0010D6
:1018E000F0B583B007001C00521A00921EE001AB55
:1018F00026E00DF0E9F828E0002A32DDD317DB05F9
:10190000DB0D9B185B129900E06884466144E1603E
:1019100009686160802080000818A0605B02D31A0B
:10192000CB182360009B5D1B00953100009A002AB4
:101930001BDDA36820681B1A01939A42D7DC6B4613
:101940001D684E1920682A1ED3D1236862689A1A2E
:10195000AA18D1D4802189008A42CDDA5B1923608C
:10196000E0E7D3435B0ADB43CDE723683B60636872
:101970007B60A368BB60E368FB60380003B0F0BD28
:10198000F0B5C64600B59AB080460D0017001C00A1
:10199000CB68D268934243D0236806936368079369
:1019A000A3680893E368099302AE06AB8A680968E6
:1019B0003000FFF795FF230007CE07C332681A6097
:1019C000EE68043615E002CE23680E9363680F9329
:1019D000A3681093E36811930AAD80239B00CA1893
:1019E0000EAB2800FFF77CFF230007CD07C32A6852
:1019F0001A60FB68B342E6D179683A6823681293AB
:101A000063681393A3681493E3680193159312AB6F
:101A10004046FFF765FF40461AB080BCB846F0BDAF
:101A200009683A682368169363681793A368189344
:101A3000E3680193199316ABFFF752FFEBE710B57C
:101A40008EB004000868029048680390886804908B
:101A5000C9680191059111680691516807919168D3
:101A60000891D268019209921A680A925A680B92F8
:101A70009A680C92DB6801930D930AAB06AA02A93F
:101A80002000FFF77DFF20000EB010BDF0B583B041
:101A9000070016001C00511A01911FE06B4634E04C
:101AA000401B31000DF010F833E0002A3EDDD31763
:101AB000DB05DB0D9B185B129900E06884466144EE
:101AC000E16009686160802080000818A0605B0206
:101AD000D31ACB182360019B5D1B01950199002946
:101AE00028DD236862689B1A0093206809D180234F
:101AF0009B000093E368043B186880239B009C468E
:101B00006044009B9942C9DC01AB1D68761B2A1E0C
:101B1000C6D16942236862689A1A521BC5D48020D4
:101B200080008242C1DA5B182360D4E7D3435B0AAA
:101B3000DB43C1E723683B6063687B60A368BB60ED
:101B4000E368FB60380003B0F0BDF0B5C64600B5F1
:101B50009AB080460F0015001C00CB68D2689342F3
:101B600044D02368069363680793A3680893E368E7
:101B7000099302AE06AB2A6869683000FFF786FF5A
:101B8000230007CE07C332681A60EE68043E16E0F1
:101B9000316823680E9363680F93A3681093E3681A
:101BA00011930AAD80239B00CA180EAB2800FFF7E3
:101BB0006DFF230007CD07C32A681A60043EFB6847
:101BC000B342E5D13968BA68236812936368139306
:101BD000A3681493E3680193159312AB4046FFF793
:101BE00055FF40461AB080BCB846F0BD09682A6867
:101BF0002368169363681793A3681893E3680193A7
:101C0000199316ABFFF742FFEBE710B58EB0040057
:101C1000086802904868039088680490C968019138
:101C20000591116806915168079191680891D268F1
:101C3000019209921A680A925A680B929A680C9259
:101C4000DB6801930D930AAB06AA02A92000FFF7F7
:101C50007CFF20000EB010BD30B585B00D6800953A
:101C60004C6801948A680292CB68039305604460D3
:101C70008260C36005B030BDF0B5DE4657464E46C3
:101C80004546E0B5D7B001900E6802964D680395C1
:101C900088680490C96805911768BA46069757681E
:101CA000B94607979768B8460897D268934609924D
:101CB0001A6894460A925F680B979A680C92DB68E0
:101CC0000D931696179518901991544612944C46F8
:101CD0001394444614945C46159464460E940F97EE
:101CE00010921193229623952490259154461E9488
:101CF0004C461F94444620945C46219464461A94B2
:101D00001B971C921D93329633953490359132A9CE
:101D100036A8FFF7A1FF1E9B2A931F9B00932B93CE
:101D2000209B00932C93219B00932D932AA92EA8EE
:101D3000FFF792FF1A9826901B9927911C9A2892D8
:101D40001D9B2993369C4A94379F4B97389E4C96FF
:101D5000399D4D954E944F97509651952E9C429497
:101D60002F9F4397309E4496319D459546944797C3
:101D7000489649953A903B913C923D933E903F91D5
:101D8000409241933EAB46AA4EA952A8FFF757FE98
:101D9000529B019A1360539B00935360549B009392
:101DA0009360559BD360100057B0F0BCBB46B24661
:101DB000A946A046F0BD0000F0B5DE4657464E46A7
:101DC0004546E0B56E4CA544040005900E00039214
:101DD0001F004369CA68D21A9210013A5202096878
:101DE0007568491B521801698068091A914689442F
:101DF0002200606A1832C31A9B10013B5B025268D2
:101E0000A069821A9B189A468A4453465B084B4540
:101E100001D800F073FCA368E268991AA5231B019E
:101E20000AAA944663441B688B421DD805988268B1
:101E30000C92C3680D9301690E9141690F91A52120
:101E400009010AA88446614409684942D31AA520B9
:101E50000001604400681B1A0FD480208000834278
:101E60000BDA52180C9220E0A5231B0163441B6877
:101E7000591A2000FEF7C0FFD8E7002B35DDDA172E
:101E8000D205D20DD21852120F99069191000698E0
:101E9000844661440F9109680D91802080000818E4
:101EA0000E9052029A1A8A180C92059A93689A46D2
:101EB0001093D3689B46119313690693129352694A
:101EC0000792139251461C9159461D911E931F92E1
:101ED00053465B1A4A46D3180BD480229200934291
:101EE00007DA53464B441C931BE0DA43520AD243B1
:101EF000CAE7002B40DDDA17D205D20DD2185212F4
:101F00001F99089191000898844661441F910968BF
:101F10001D918020800008181E9052029B1ACB1839
:101F20001C931CAB320013CB13C21B681360A52398
:101F30001B010AAA944663441B684B4500DD12E26C
:101F4000059881681891C368199302691A924269C9
:101F50001B92CB1AA522120162441268D21811D426
:101F600080239B009A420DDAA5231B0163441B6862
:101F70009C46614418911EE0DA43520AD243BFE7FF
:101F8000ACF5FFFF002A00DC4CE1D317DB05DB0DCD
:101F90009B185B121B99089199000898844661442C
:101FA0001B91086819908021890041181A915B02E1
:101FB000D31AC3181893059881682491C268259292
:101FC00003692693406927901898289019980890DB
:101FD00029901A9D09952A951B9805002B900CAC09
:101FE000A1460C9C2C944C4664682D944C46A468E5
:101FF0002E944C46E4682F94FFA844300160426060
:102000008360059C6469C460FC91FD92FE93059C0D
:102010006469FF94FFA85430016042608360059CAE
:102020006269C260189AFFAB24331A60089BFFAA4A
:1020300028321360FFAA2C3209991160FFAA3032AE
:102040001560189AFFA8043002601A00FFAB08332D
:102050001A60FFAB0C3319602800FFAB10331D6012
:10206000FFAB3433189D1D605A609960D8600C9B9B
:10207000FFAA143213604B465B68FFAA1832136044
:102080004B469B68FFAA1C3213604B46DB68FFAAD5
:1020900020321360059C0094FFAB1433FFAA343246
:1020A000FFA9543120A8FFF7E7FD08344D460ECDB7
:1020B0000EC42B682360189D3495199935911A9A8E
:1020C00036921B9B379330688446389070688146FF
:1020D0003990B0683A90F06805903B9050463C903B
:1020E00058463D9006983E90079C3F94F495F59194
:1020F000F692F793F895F991FA92FB936046EC907B
:102100004846ED90B068EE900598EF906046F090EC
:102110004846F190B068F2900598F3905046E890E8
:102120005846E9900698EA90EB94FFA8A430056021
:1021300041608260C360FFA8B43005604160826086
:10214000C360FFAB843364461C6049465960B16884
:102150009960059ADA60FFAB94331C604946596078
:10216000B1689960DA60FFAB643354461C6059462D
:10217000596006989860079ADA60FFAB74331C6068
:1021800059609860DA60FFAA9432FFA9B431FFA8C1
:10219000C430FFF754FCFFABC4331B683093FFAB74
:1021A000C8331B6805933193FFABCC331B68059391
:1021B0003293FFABD0331B6805933393039B1B68AB
:1021C0004493039B5B684593039B9B684693039BE7
:1021D000DB68059347933B6848937B684993BB68EA
:1021E0004A93FB6805934B9332684C9273684D9306
:1021F000B1684E91F16805914F91A52109010AA896
:102200008446614409684942D31AA520000160440C
:1022100000681B1A0AD480208000834206DA521814
:102220004C921CE0D3435B0ADB43B3E6002B00DC9B
:1022300095E0DA17D205D20DD21852124F990591B6
:1022400091000598844661444F9109684D91802022
:10225000800008184E9052029A1A8A184C92449B99
:10226000E0934598E190469DE295479CE394E49382
:10227000E590E695E794489BD8934999D9914A9A75
:10228000DA924B9B9C46DB93489FDC97DD91DE9274
:10229000DF934C9FD4974D9FBA46D5974E9FB94632
:1022A000D6974F9FB846D797A127FF0002AB9B4612
:1022B0005F44449E3E607860BD60FC60A327FF00E1
:1022C0005F44449E3E607860BD60FC60FFACF434C7
:1022D000489820606160A2606346E360A024E40047
:1022E0006C4420606160A260E360FFABD4334C9922
:1022F000196052465A604A469A604246DA60FFAB1D
:10230000E433196052465A604A469A604246DA609F
:1023100022003900A120C0000AACA4466044FFF7A7
:102320004BF8A123DB00A44663441B684093EE4BAB
:1023300063441B6805934193A223DB0063441B683D
:1023400005934293E94B63441B6805934393E84B21
:102350009D44F0BCBB46B246A946A046F0BDDA4358
:10236000520AD2436AE7039B196814915B6815937C
:10237000039A92681692039AD2681792A5221201C4
:102380000AA88446624412684846101ACB1AC2183A
:1023900006D480239B009A4202DA0918149118E0AF
:1023A000002A00DC9CE1D317DB05DB0D9B185B12D8
:1023B0001799089199000898844661441791086814
:1023C000159080218900411816915B02D31AC31819
:1023D0001493059A93685493D36899465593136957
:1023E0005693536957933168589173689C46599333
:1023F000B2685A92F36804935B93039800685C9008
:10240000039840685D90039880685E900398C06868
:1024100008905F90149860901598089061901698B5
:10242000089062901798089063900CAD0C98649097
:102430000D9865900E9866900F9C08946794B7204D
:10244000C0000AAB98464044059EB66806604C46FC
:102450004460059E346984607469C460B520C0001E
:1024600040440160644644608260049BC360B320C2
:10247000C00040440C9E06600D9C44600E9C84602D
:10248000089CC460C320C0004044059EB668066036
:102490004C464460059E346984607469C460B92008
:1024A000C0004044B66806604C464460059E3469EE
:1024B00084607469C460C520C0004044B66806608A
:1024C0004C464460059E346984607469C460BF20D2
:1024D000C00040440160644644608260049BC36065
:1024E000BB20C0004044016044608260049BC36024
:1024F000C120C0004044016044608260049BC3600E
:10250000BD23DB0043440C9919600D9A5A600E9A62
:102510009A60089ADA6034000096BD23DB004344D9
:102520000200C521C900414418A8FFF7A5FBB1234B
:10253000DB0043445C9919605D9A05925A605E9A8B
:1025400005929A605F9ADA60AF23DB00434460999A
:102550001960619A05925A60629A05929A60639A2C
:10256000DA60AD23DB00434418991960199A05928B
:102570005A601A9A05929A601B9ADA600096AD2307
:10258000DB004344AF22D2004244B121C9004144A0
:1025900050A8FEF738FF08340ECD0EC42B68236018
:1025A000149B03936C93159E6D96169D6E95179CC8
:1025B0006F943B689846709379687191BA6872928B
:1025C000FB6899467393534674935B467593069FD5
:1025D0007697079B7793A927FF000AAB9C46674431
:1025E000039838607E60BD60FC60AB27FF006744E5
:1025F000039838607E60BD60FC60A527FF006744DB
:10260000404638607960BA604B46FB60A727FF0000
:10261000674438607960BA60FB60A327FF006744B5
:102620005046386058467860069BBB60079BFB604D
:10263000CF27FF006744039838607E60BD60FC6070
:10264000D127FF006744039838607E60BD60FC605E
:10265000CB24E4006444434623606160A2604B469F
:10266000E360CD24E40064442500434623606160B8
:10267000A2604B46E360C720C0006044030054469C
:10268000046058465860069A9A600799D960C92331
:10269000DB0063441C6058609A60D960C923DB008A
:1026A00063442A003900D320C00064466044FEF72A
:1026B00083FED323DB00A44663441B6868930D4B61
:1026C00063441B6805936993D423DB0063441B6850
:1026D00005936A93084B63441B6805936B9336E636
:1026E000D3435B0ADB4363E60C05000014050000DE
:1026F000540A00009C060000A4060000059A136A14
:102700009269991A0139A5231B010AAA94466344C8
:102710001B688B421DD8059882690C92C3690D9382
:10272000016A0E91416A0F91D31AA52109010AA8E5
:10273000844661440968CB1814D4802189008B42F7
:1027400010DAA5231B0163441B689C4662440C926B
:1027500020E0A5231B0163441B68591A0598FEF766
:1027600009FBD8E7002B38DDDA17D205D20DD218D5
:1027700052120F99069191000698844661440F9178
:1027800009680D918020800008180E9052029A1A54
:102790008A180C92059A946906941094D3699B4602
:1027A0001193136A07931293526A0B921392514634
:1027B0004846091A7894584679907A937B924B460A
:1027C00052469B1A221A9A180BD48020800082420B
:1027D00007DAA446634478931DE0DA43520AD243F1
:1027E000C7E7002A42DDD317DB05DB0D9B185B1220
:1027F0007B9808909800089CA44660447B900068F1
:1028000079908024A400A446844464467A945B02B0
:10281000D21A8218789278AB320031CB31C21B6861
:102820001360A5231B010AAA944663441B688B42CC
:1028300000DBE0E1059882691892C3691993016A87
:102840001A91416A1B91A521090161440968494215
:10285000D31AA5200001604400681B1A0AD4802006
:102860008000834206DA521818921CE0D3435B0AB8
:10287000DB43BDE7002B00DCB9E1DA17D205D20D4E
:10288000D21852121B99089191000898844661440D
:102890001B91096819918020800008181A90520233
:1028A0009B1ACB181893189B8093199B08938193BC
:1028B0001A9A099282921B990A918391059CA169A7
:1028C0008491E06984468590226A8692636A879340
:1028D000889189908A928B93F320C0000AACA0461D
:1028E0004044189D0560089C4460099C84600A9CD3
:1028F000C460E920C0004044189D0560089C446005
:10290000099C84600A9CC460F520C0004044189D66
:102910000560089C4460099C84600A9CC460EF20A8
:10292000C00040440160644644608260C360EB20A4
:10293000C0004044016044608260C360F120C00078
:102940004044016044608260C360ED20C0004044A8
:10295000016044608260C360059C00940300F12222
:10296000D2004244F521C90041447CA8FFF784F914
:102970000CAB183407CB07C41B68236035689095EF
:1029800073689C469193B36899469293F3689A460C
:102990009393189B9493199995911A9A96921B9CCC
:1029A00005949794069898905846999007989A900D
:1029B0000B9B04939B93E520C00040440895056061
:1029C000654645604D4685605546C560E720C000B8
:1029D0004044089D0560654645604D468560554606
:1029E000C560E120C0004044189D056041608260E0
:1029F000059CC460E320C0004044189D0560416010
:102A00008260059CC460DF20C0004044069D0560D4
:102A10005D464560079C8460049CC460FF20C00044
:102A20004044089B04930360654645604D468560BD
:102A30005546C5607A484044049B0360654645603E
:102A40004D4685605546C560FB20C0004044189B3C
:102A5000036041608260059BC360FD20C00040446C
:102A6000189B036041608260059BC360F723DB0015
:102A700043440698186059465960079A9A60DC608A
:102A8000F923DB004344186059609A60DC60F92345
:102A9000DB004344FD22D200424461494144614885
:102AA0004044FFF7B2F85F4B43441B688C935E4B86
:102AB00043441B6805938D9382231B0143441B6889
:102AC00005938E93594B43441B6805938F93039B47
:102AD0001B689B46A093039B5D68A1959C68A2948C
:102AE000D868A3903968A4917A68A592BB680593C9
:102AF000A693FF68BC46A79737680397A89777689F
:102B0000B946A997B768BA46AA97F6680696AB96EB
:102B1000DB27FF0047445B463B607D60BC60F8609C
:102B2000DD27FF0047443B607D60BC60F860D7272D
:102B3000FF00474439607A60059BBB606346FB60D9
:102B4000D927FF00474439607A60059BBB60634624
:102B5000FB60D527FF004744039B3B604B467B60EF
:102B60005346BB60069EFE60314F47445B463B6068
:102B70007D60BC60F8602F4F47443B607D60BC6067
:102B8000F8602D48404401604260059D85606346C1
:102B9000C3602A484044016042608560C360284B9E
:102BA0004344039919604A465A6052469A6006980F
:102BB000D860244B4344039919604A465A605246F0
:102BC0009A60D860204C44441E4B43441B4A424404
:102BD00039002000FEF7F0FB23689C9363689D9307
:102BE000A3689E93E36805939F93FFF7B0FBDA43D6
:102BF000520AD24346E6039B1A6814925B68159307
:102C00000398806816900398C0681790D31ACB1861
:102C10001CD480208000834218DA521814922EE0CF
:102C200008080000180800001C0800002408000024
:102C300068080000780800004808000058080000F4
:102C4000280800003808000088080000002B00DC7D
:102C50005AE1DA17D205D20DD218521217990691FD
:102C60009100069884466144179109681591802067
:102C700080000818169052029A1A8A181492149B0F
:102C8000B093159CB194169A0692B2921799079137
:102C9000B3913D68B4957A689446B592BA68B69295
:102CA000FF68B7973068B8907068B990B068BA900C
:102CB000F068BB9005998869BC90C869BD90086AA6
:102CC000BE90486ABF908869C090C869C190086A80
:102CD000C290486AC3908E490AAB98464144149BFF
:102CE0000B604C60069B8B60079BCB60894B434419
:102CF0001D60604658609A60DF60874B4344059CC6
:102D0000A0691860E2695A60226A9A60626ADA60B1
:102D10000094814B43447F4A424418A8FEF773FB5A
:102D20007E4B4344B8991960B99A93465A60BA9D4C
:102D30009D60BB9ADA607A494144BC980860BD98AE
:102D40004860BE9B06938B60BF9FCF60754941442E
:102D5000189B0B60199B9A464B601A9B99468B6097
:102D60001B9B9C46CB6070494144B89B0B605B4603
:102D70004B608D60CA606D494144B89B0B605B46F7
:102D80004B608D60CA606A494144B89B0B605B46EA
:102D90004B608D60CA60674A4244BC9B13605060C0
:102DA000069D9560D760644A4244BC9B13605060A6
:102DB0009560D760614A4244BC9B13605060956047
:102DC000D7605F4B4344189C1C605046586048468F
:102DD00098606046D860059C0094ACA8FEF74CFF54
:102DE0000CAB183407CB07C41B682360039B1F6818
:102DF000C8975B68C993039A9568CA95D26803928D
:102E0000CB9214998B46CC91159CCD941698CE906C
:102E100017990591CF9131680491D09171688846D6
:102E2000D191B1688946D291F1688A46D3914549DA
:102E30000AAA944661440F601E004B608D60039B9C
:102E4000CB60414961440F6006964E608D60039BE4
:102E5000CB603E4961445E460E604C608860059ED2
:102E6000CE603B4961445E460E604C608860059EC2
:102E7000CE6038496144049E0E6043464B604B4629
:102E80008B605346CB60344961440F60069E4E60B0
:102E90008D60039BCB60314961440F604E608D6053
:102EA000039BCB602E4A62445D461560546090607F
:102EB000059ED6602B4A6244156054609060D660CF
:102EC000294B6344049C1C60404658604846986007
:102ED0005046D860254B6344049C1C6040465860B3
:102EE000484698605046D860214C64442000FEF764
:102EF00063FA2368C4936368C593A368C693E368C1
:102F00000593C793FFF723FADA43520AD243A5E6A3
:102F1000380900002809000018090000080900000D
:102F2000F8080000E80800009809000048090000BF
:102F3000A80900007809000058090000880900006D
:102F400068090000C8080000D8080000A8080000B0
:102F5000B808000098080000F8090000080A0000FE
:102F6000D8090000E8090000B8090000C8090000FD
:102F7000180A0000F0B5DE4657464E464546E0B515
:102F8000B34CA54484460290080015001C00166846
:102F900008965368099393680A93D1680B91226845
:102FA0000C9267680D97A7680E97E7680F97409691
:102FB0006F684197429343913C9267683D97A76839
:102FC0003E97E7683F97791A891001394902676887
:102FD000D21B8A189E1B96190368614689688B422A
:102FE0002FD0029989698B4200D112E10368309396
:102FF0004368319383683293C368039333932B6898
:1030000034936B683593AB683693EB6803933793CF
:103010002368389363683993A3683A93E36803930A
:103020003B93009638AB34AA30A90298FEF7C4FE51
:10303000ED239B009D44F0BCBB46B246A946A0468A
:10304000F0BD61468B68C968591A8E4213D8029840
:1030500082680492C36805930169069141690791EA
:103060007142D31A9E1B0BD480239B009E4207DA29
:10307000521804921DE0711A6046FDF7BDFEE6E7A6
:10308000002E00DCC1E0F317DB05DB0D9B195B12A2
:10309000079A03929A0003998C4662440792126839
:1030A000059280218900511806915B02F31AD3180A
:1030B00004932B689C4614936B6898461593AE68EE
:1030C0001696ED6817952068189061681991A268A6
:1030D0001A92E3681B9304AC049FBB461C97059FA0
:1030E000BA461D97069FB9461E97079F1F976746CA
:1030F00044974746459746964795489049914A9246
:103100004B935F464C9757464D974F464E97079FB8
:103110004F9767465897474659975A965B955490EC
:103120005591569257935F465097574651974F4641
:103130005297079F539767466497474665976696E9
:10314000679560906191629263935F465C97574682
:103150005D974F465E97079F5F9767467497474610
:1031600075977696779567467897474679977A96D2
:103170007B956C906D916E926F937090719172923D
:1031800073935F466897574669974F466A97079FBC
:103190006B9767468C9747468D978E968F956746B7
:1031A00090974746919792969395849085918692B1
:1031B0008793889089918A928B935B467C93534640
:1031C0007D934B467E93079B7F935B46809353464C
:1031D00081934B468293079B839380AB88AA90A9E7
:1031E00094A8FEF7E9F8949B1093959B0393119391
:1031F000969B03931293979B03931393029F083715
:103200000ECC0EC723683B6012E7F3435B0ADB4337
:103210003EE702990B6A8969591A01398E4212D820
:10322000029883690493C1690591026A0692426A11
:103230000792591A71180DD480229200914209DA2E
:103240009B1904931FE0711A0298FDF793FDE7E7BD
:103250004CFCFFFF002900DCBCE0CB17DB05DB0DDD
:103260005B185B12079A03929A00039884466244A3
:1032700007921268059280208000101806905B0269
:10328000CB1AD31804932B689C4624936B689846FA
:103290002593AE682696ED6827952068289061688A
:1032A0002991A2682A92E3682B93029FBC69A346E6
:1032B0002C94FC69A2462D943C6AA1462E947C6A0B
:1032C0002F9467469897474699979A969B959C9016
:1032D0009D919E929F935F46A0975746A1974F4618
:1032E000A297A3946746AC974746AD97AE96AF9525
:1032F000A890A991AA92AB935F46A4975746A59729
:103300004F46A697A7946746B8974746B997BA9687
:10331000BB95B490B591B692B7935F46B0975746B8
:10332000B1974F46B297B3946746C8974746C99737
:10333000CA96CB956746CC974746CD97CE96CF9504
:10334000C090C191C292C393C490C591C692C793D5
:103350005F46BC975746BD974F46BE97BF9467469A
:10336000E0974746E197E296E3956746E49747463C
:10337000E597E696E795D890D991DA92DB93DC90C1
:10338000DD91DE92DF935B46D0935346D1934B465B
:10339000D293D3945B46D4935346D5934B46D6935E
:1033A000D794D4ABDCAAE4A9E8A8FEF705F8E89B1B
:1033B0002093E99B03932193EA9B03932293EB9B36
:1033C0000393239304AB029F183707CB07C71B68EF
:1033D0003B602DE6CB435B0ADB4343E7F0B5D646C3
:1033E0004F4680B5BA4CA54404000D00814200D17F
:1033F000A1E00200436A183240691B1A9B10013B8E
:103400005B025268A069821A9B182269A168521A4D
:103410009B1829006A6A18316E69921B9210013A52
:1034200052024968AE69711A52182969A868091AC6
:1034300052189A4200D986E082460C90EB68994671
:103440000D932F690E976E690F96A9691091EA691D
:1034500011922B6A1293686A1390A5681495E56817
:1034600015952569039516956569179555464C95EB
:103470004D464D954E974F96554650954D46519514
:10348000529753964491459246934790489149925A
:103490004A934B90A5684095E5684195039D4295F8
:1034A00065694395554664954D466595669767965B
:1034B000554668954D4669956A976B965C915D9205
:1034C0005E935F906091619262936390A36854935E
:1034D000E3685593039A569263695793A368589388
:1034E000E36859935A9263695B9358AB60AA68A9E1
:1034F0006CA8FDF761FF6C9808AD08906D9A099271
:103500006E9B0A936F990B913C903D923E933F9135
:10351000A3693893E3693993236A3A93626A3B92C9
:10352000043204312000FDF7D4F92300183307CD0D
:1035300007C32A681A602000A1239B009D44C0BCD9
:10354000BA46B146F0BDA9681891EA6819922E6989
:103550001A9668691B9004910592069607908A1A3C
:103560009A1806D480208000824202DACB18049395
:1035700018E0002A00DCA7E0D317DB05DB0D9B1861
:103580005B1207990391990003988446614407915F
:103590000968059180208000081806905B02D31A04
:1035A000CB180493AB682093EB6821932F69229783
:1035B0006E6923960498249005992591069A26927F
:1035C000079B9C462793A3682893E3682993236964
:1035D0002A9363692B93AB687C93EB687D937E970A
:1035E0007F96AB688093EB68819382978396749003
:1035F0007591769263467793789079917A927B93DE
:10360000A3687093E36871932369729363697393FA
:10361000AB689493EB68959396979796AB6898935D
:10362000EB6899939A979B968C908D918E926346B6
:103630008F939090919192929393A3688493E3686F
:1036400085932369869363698793A3688893E36866
:10365000899323698A9363698B9388AB90AA98A90D
:103660009CA8FDF7A9FE9C9B1C939D9B03931D9317
:103670009E9B03931E939F9B03931F93A3692C937D
:10368000E3692D93236A2E93636A2F93049B3093EF
:10369000059B03933193069B03933293079B0393FC
:1036A0003393AB693493EB6935932B6A36936B6A2A
:1036B000039337936B4600221A7034AB30AA2CA9BF
:1036C0002000FFF757FC36E7D3435B0ADB4358E79C
:1036D0007CFDFFFFF0B5DE4657464E464546E0B559
:1036E000C94CA54405900F004B68002B2CD0C74D4A
:1036F0002A006B6A183268691B1A9B10013B5B0237
:103700005268A869821A9B182A69A968521A9B18DC
:10371000BA6A9A421AD13C00683429002000FFF7A7
:103720005DFE0022BA4BBA63FB633A637B63B94B1D
:10373000FB64B94ABA647A643A643B66FB65BB656C
:103740007B653B6500252EE3B44DD1E72B00696A0C
:1037500018336C69091B8910013949025B68AC692F
:10376000E31AC9182B69A8681B1AC9188A4212D80B
:10377000D1D2A8682290EB682393296924916969C2
:103780002591C31AD1180BD480239B00994207DAE4
:10379000821822921CE0511A2800FDF703FFBAE7B5
:1037A000002932DDCB17DB05DB0D5B185B12259A98
:1037B00003929A00039884466244259212682392E9
:1037C00080208000101824905B02CB1AD31822931B
:1037D00022AC229B2A93239B2B93249B2C932599E9
:1037E0002D91AB692693EB6927932B6A28936A6A1C
:1037F0002992043204312800FDF76BF82A001832B0
:103800000BCC0BC22368136085E7CB435B0ADB4319
:10381000CDE7834809F0C8FA002B45DDDA17D20559
:10382000D20DD21852123199039191000398844617
:103830006144319109682F918020800008183090F0
:1038400052029A1A8A182E922E9B1B78242B2FD064
:103850002900BB6AAB422BD901352300626A1833B9
:103860006669921B9210013A52025B68A669F31ACC
:10387000D2182369A0681B1AD2189142C9D222001B
:10388000A0682E90E3682F93266908323096D2689C
:1038900003923192C31ACB18BED480229200934275
:1038A000BADA41182E91CFE7DA43520AD243BAE787
:1038B0000023984658E15A4809F076FA002B40DD7B
:1038C000DA17D205D20DD218521235980390900013
:1038D000039EB44660443590006833908026B6005D
:1038E0008619349652029A1A82183292329B1B78A9
:1038F0002A2B2AD02300626A18336669921B921021
:10390000013A52025B68A669F31AD2182369A068CB
:103910001B1AD218914228D22200A0683690E36880
:103920003793266908323896D26803923992C31ABF
:10393000CB181DD480229200934219DA4018369099
:103940002EE0DA43520AD243BFE7C246BB6A99422D
:1039500001D302F0D5F908AB0693324900230A00DF
:1039600006A8FDF721F8013571E22D4809F01CFA8F
:10397000002B41DDDA17D205D20DD2185212399838
:1039800003909000039EB4466044399000683790DD
:103990008026B6008619389652029A1A82183692F4
:1039A000369B1B7842465A4090462300626A183381
:1039B0006669921B9210013A52025B68A669F31A7B
:1039C000D2182369A0681B1AD218914218D222007B
:1039D000A0683A90E3683B93266908323C96D26827
:1039E00003923D92C31ACB181ED4802292009342B8
:1039F0001ADA40183A902FE0DA43520AD243BEE76F
:103A0000074809F0D1F9C04654FCFFFF50270020B9
:103A1000000090C000FCFFFF000080C428270020A9
:103A20007C1B0110E81C0110002B40DDDA17D205C9
:103A3000D20DD21852123D9803909000039EB446C6
:103A400060443D9000683B908026B60086193C9605
:103A500052029A1A82183A923A9B1B782C2B2AD03F
:103A60002300626A18336669921B9210013A52026F
:103A70005B68A669F31AD2182369A0681B1AD218CA
:103A800091422CD22200A0683E90E3683F932669C1
:103A900008324096D26803924192C31ACB1821D4BF
:103AA0008022920093421DDA41183E9132E0DA43BF
:103AB000520AD243BFE71EAE1C96C84900230A0033
:103AC0001CA8FCF771FF1CA912A8FDF787FB1C9826
:103AD000B04248D01E9B591C06F092FC43E0C048FF
:103AE00009F062F9002B6EDDDA17D205D20DD2187B
:103AF0005212419903919100039884466144419187
:103B000009683F91802080000818409052029A1A5C
:103B10008A183E923E9B1B789B46189A0C92199BE2
:103B20000D931A9903910E911B9903910F919A424B
:103B30004DD00C9B1E00183E0C96726892460122D6
:103B400052449146103B32689A424AD0B368994534
:103B500049D833685246594699544B467360336886
:103B60004B4400221A7001352900BB6AAB4200D8D1
:103B7000EBE62300626A18336669921B9210013AE1
:103B800052025B68A669F31AD2182369A0681B1A4F
:103B9000D218954200D38EE62200A0683290E368E6
:103BA0003393266908323496D26803923592C31A49
:103BB000EB1800D582E680229200934200DB7DE67E
:103BC0004019329092E6DA43520AD24391E70B0051
:103BD000043B0F931B680D93F933FF330E930C9343
:103BE000A7E70F23B3E701230093002300225146E8
:103BF000300009F0E5F9ACE7794809F0D5F8002B79
:103C000040DDDA17D205D20DD21852124598039032
:103C10009000039EB446604445900068439080261F
:103C2000B6008619449652029A1A82184292429B12
:103C30001B780D2B75D02300626A18336669921BBE
:103C40009210013A52025B68A669F31AD2182369EE
:103C5000A0681B1AD218914218D22200A068469080
:103C6000E3684793266908324896D26803924992DE
:103C7000C31ACB180DD480229200934209DA40185F
:103C800046901EE0DA43520AD243BFE7544809F097
:103C90008BF8002B41DDDA17D205D20DD218521263
:103CA000499803909000039EB44660444990006890
:103CB00047908026B6008619489652029A1A8218B2
:103CC0004692469B1B780A2B2BD001352300626A53
:103CD00018336669921B9210013A52025B68A6691A
:103CE000F31AD2182369A0681B1AD218914272D213
:103CF0002200A0684A90E3684B93266908324C96EC
:103D0000D26803924D92C31ACB1871D480229200CC
:103D100093426DDA41184A9182E0DA43520AD24363
:103D2000BEE7079B002B0BD0102300930023069ABD
:103D30002C492D48FCF768FD5346834200D1C4E06E
:103D40002A4806F083FC069808AB984203D0089BEB
:103D5000591C06F055FB149B99465693159B9846A3
:103D60005793169B9C465893179E599618985290B5
:103D7000199953911A9A54921B9B9A4655934B4604
:103D80005E9343465F936346609361965A905B915E
:103D90005C9253465D935AAA5EA912A8FCF7CBFE2B
:103DA00012A8FCF7B7FEBB6AAB4201D801F0CCFF0A
:103DB0000023129313931493159316931793189348
:103DC00019931A931B93012112A8FCF717FF12A84D
:103DD000FCF7C6FD3CE5024808F0E6FFE81C0110D0
:103DE0007C1B0110C41B0110090201103C1C0110B6
:103DF000002B5BDDDA17D205D20DD21852124D9985
:103E0000039191000398844661444D9109684B9158
:103E10008020800008184C9052029A1A8A184A9200
:103E20004A9B1B789946079B98465E1C08AB069AEE
:103E30009A423FD0089B9E423ED8069B4246494646
:103E400099540796069B9C466644002232702900CE
:103E5000BB6AAB4200D864E72300626A1833666924
:103E6000921B9210013A52025B68A669F31AD218AB
:103E70002369A0681B1AD218954200D3BCE6220021
:103E8000A0684290E3684393266908324496D2685A
:103E900003924592C31AEB1800D5B0E68022920037
:103EA000934200DBABE640194290C0E6DA43520A87
:103EB000D243A4E70F23BEE701230093002300228F
:103EC000414606A809F07CF8B7E71B9B0393179BB4
:103ED0000493039B049A9B1A9B10013B5A00D3182E
:103EE000D900C91A189B0393199B0493039B049A46
:103EF0009A1AD21093009B1818011B1818021B184D
:103F000018041B185B009B18C918169A149BD21A28
:103F1000D21093009B1818011B1818021B181804C4
:103F20001B185B009B18CB18002B00D1AAE0149A39
:103F30004E92159B4F9316990391509117990391A7
:103F40005191D31ADB109E00F61831017618310218
:103F50007618310476187600F61801D4142E1DDD7B
:103F6000002E00DC93E01521300005F0A9F9519BEB
:103F700003938300039A9446634451931A684F92C3
:103F80001300F933FF33509343001818C300181A75
:103F9000361A73009E19F60096194E964E9A53687B
:103FA000012B7AD90EAB0C9311685268012A79D98A
:103FB0000231023A8A1800230CA8FCF7F5FCC0492C
:103FC0000CA809F057F8002872D0BE490CA809F0D7
:103FD00051F8002801D001F05FF81B9B0393179B59
:103FE0000493039B049A9B1A9B10013B5A00D3181D
:103FF000D900C91A189B0393199B0493039B049A35
:104000009A1AD21093009B1818011B1818021B183B
:1040100018041B185B009B18C918169A149BD21A17
:10402000D21093009B1818011B1818021B181804B3
:104030001B185B009B18CB18062B01D800F0C2FCA4
:10404000149A8292159B83931699039184911799E0
:1040500003918591D31AD9108B005B1818011B1896
:104060001E029B191E049E1976007618063601D58D
:1040700000F0ADFC142E01DD00F0A9FC903282921C
:1040800000F0C2FC1A0000218F4808F08DFEF043BA
:10409000152105F03DF9C04369E702228B498C48A0
:1040A00008F082FE130002228A49894808F07CFE4B
:1040B0001B9B0393179B0493039B049A9B1A9B10CF
:1040C000013B5A00D318D900C91A189B0393199BB6
:1040D0000493039B049A9A1AD21093009B18180118
:1040E0001B1818021B1818041B185B009B18C91812
:1040F000169A149BD21AD21093009B1818011B1801
:1041000018021B1818041B185B009B18CB18072BF0
:104110001CD9149A6292159B63931699039164912A
:10412000179903916591D31AD9108B005B18180168
:104130001B181E029B191E049E197600761807365E
:1041400009D4142E07DCA832629221E01A0007215C
:104150005D4808F029FE002E59DD1521300005F0DC
:10416000AFF8659B03938300039A94466344659379
:104170001A6863921300F933FF33649343001818ED
:10418000C300181A361A73009E19F6009619629623
:104190005149629808F06EFF00283ED10C980EAB92
:1041A000984203D00E9B591C06F02AF9069808ABDA
:1041B000984203D0089B591C06F022F9149B99469B
:1041C000CE93159B9846CF93169B9C46D093179EF3
:1041D000D1961898CA901999CB911A9ACC921B9B98
:1041E0009A46CD934B46D6934346D7936346D8938E
:1041F000D996D290D391D4925346D593D2AAD6A928
:1042000012A8FCF798FC12A8FCF784FCCBE5F0435D
:10421000152105F07DF8C043A3E71B9B0393179B73
:104220000493039B049A9B1A9B10013B5A00D318DA
:10423000D900C91A189B0393199B0493039B049AF2
:104240009A1AD21093009B1818011B1818021B18F9
:1042500018041B185B009B18C918169A149BD21AD5
:10426000D21093009B1818011B1818021B18180471
:104270001B185B009B18CB18012B1CD9149A669253
:10428000159B67931699039168911799039169910A
:10429000D31AD9108B005B1818011B1818021B18B1
:1042A0001E049E1976007618013617D4142E15DCDC
:1042B000183266922FE01A000121034808F074FDBD
:1042C000381C01105C1C01107C1B0110CC1B011060
:1042D000E41B01101C1C0110501C0110002E6CDD91
:1042E0001521300004F0ECFF699B03938300039ACF
:1042F0009446634469931B6867931A00F932FF324E
:10430000689242001018C200101A361A72009619EC
:10431000F6009B196693669E7368092B53D01B9B0E
:104320000393179B0493039B049A9B1A9B10013BD6
:104330005A00D318D900C91A189B0393199B0493E8
:10434000039B049A9A1AD21093009B1818011B1809
:1043500018021B1818041B185B009B18C918169A22
:10436000149BD21AD21093009B1818011B18180224
:104370001B1818041B185B009B18CB18022B71D953
:10438000149A6A92159B6B93169903916C911799E5
:1043900003916D91D31AD9108B005B1818011B186B
:1043A00018021B181E049E197600761802365ED479
:1043B000142E5CDC30326A9276E0F043152104F072
:1043C000A7FFC04390E71A1E34D033681B78303BF8
:1043D0009800C01840007268012A2FD933685B78B2
:1043E000303BC0180930182104F06AFF7965726803
:1043F000022A27D933689A78303A93009B185B00D9
:104400007268032A22D93268D2789B18303B3B6508
:104410007268042A1ED933681A79303A93009B18BF
:104420005B007268052A19D932685279303A9B18B4
:10443000FB6474E70021C54808F0B6FC0121C348BD
:1044400008F0B2FC0221C14808F0AEFC0321BF48CD
:1044500008F0AAFC0421BD4808F0A6FC0521BB48D1
:1044600008F0A2FC1A000221B94808F09DFC002EB9
:104470006BDD1521300004F023FF6D9B0393830057
:10448000039A944663446D931B686B931A00F93248
:10449000FF326C9242001018C200101A361A7200D5
:1044A0009619F6009B196A936A9E1B9B0393179BB0
:1044B0000493039B049A9B1A9B10013B5A00D31848
:1044C000DA00D21A189B0393199B0493039B049957
:1044D000591AC9108B005B1818011B1818021B18F9
:1044E00018041B185B005B18D218169B1499591AF4
:1044F000C9108B005B1818011B1818021B18180430
:104500001B185B005B18D318032B24D914996E91E8
:10451000159B6F93169A03927092179A0392719259
:10452000CB1AD810820012181301D2181302D21815
:104530001304D3185B001B180333984610D443466A
:10454000142B0DDC48316E9129E0F043152104F065
:10455000DFFEC04391E71A0003217D4808F024FCE8
:104560004346002B6EDD1521404604F0A9FE719BE9
:1045700003938300039A94466344719319686F917F
:104580000B00F933FF33709342001018C3001B1A5D
:104590004246D31A5A00D318DB00CB186E936E9A9A
:1045A00031003800FBF7D6FE1B9B0393179B049347
:1045B000039B049A9B1A9B10013B5A00D318D90005
:1045C000C91A189B0393199B0493039B049A9A1A84
:1045D000D21093009B1818011B1818021B181804FE
:1045E0001B185B009B18C918169A149BD21AD2107C
:1045F00093009B1818011B1818021B1818041B188D
:104600005B009B18CB18042B22D9149A7292159B2D
:104610007393169903917491179903917591D31A15
:10462000D9108B005B1818011B1818021B181E04E8
:104630009E197600761804360FD4142E0DDC6032E5
:10464000729227E0D843152104F062FEC0438EE742
:104650001A0004213E4808F0A7FB002E6BDD15214F
:10466000300004F02DFE759B03938300039A94465B
:10467000634475931B6873931A00F932FF32749286
:1046800042001018C200101A361A72009619F6006D
:104690009B197293729E1B9B0393179B0493039B1E
:1046A000049A9B1A9B10013B5A00D318DA00D21AC5
:1046B000189B0393199B0493039B0499591AC910DF
:1046C0008B005B1818011B1818021B1818041B1804
:1046D0005B005B18D218169B1499591AC9108B00ED
:1046E0005B1818011B1818021B1818041B185B0014
:1046F0005B18D318052B24D914997691159B7793C1
:10470000169A03927892179A03927992CB1AD8103C
:10471000820012181301D2181302D2181304D318EE
:104720005B001B180533984614D44346142B11DC48
:10473000783176912DE0F043152104F0E9FDC04376
:1047400091E71A000521024808F02EFB981A011083
:104750007C1B01104346002B6EDD1521404604F002
:10476000AFFD799B03938300039A94466344799346
:10477000196877910B00F933FF33789342001018D2
:10478000C3001B1A4246D31A5A00D318DB00CB18B9
:104790007693769A31003800FBF7DEFE1B9B03937D
:1047A000179B0493039B049A9B1A9B10013B5A008E
:1047B000D318D900C91A189B0393199B0493039B20
:1047C000049A9A1AD21093009B1818011B18180209
:1047D0001B1818041B185B009B18C918169A149B09
:1047E000D21AD21093009B1818011B1818021B181C
:1047F00018041B185B009B18CB18092B22D9149A9C
:104800007A92159B7B93169903917C91179903914A
:104810007D91D31AD9108B005B1818011B18180250
:104820001B181E049E197600761809360FD4142E14
:104830000DDCD8327A9227E0D843152104F068FDC8
:10484000C0438EE71A000921DE4808F0ADFA002EB9
:1048500070DD1521300004F033FD7D9B0393830050
:10486000039A944663447D931B687B931A00F93244
:10487000FF327C9242001018C200101A361A7200E1
:104880009619F6009B197A937A9ECF49300008F06A
:10489000F1FB002854D11B9B0393179B0493039BAC
:1048A000049A9B1A9B10013B5A00D318D900C91ACD
:1048B000189B0393199B0493039B049A9A1AD21092
:1048C00093009B1818011B1818021B1818041B18BA
:1048D0005B009B18C918169A149BD21AD210930029
:1048E0009B1818011B1818021B1818041B185B00D2
:1048F0009B18CB180B2B2BD9149A7E92159B7F9368
:10490000169903918091179903918191D31AD91027
:104910008B005B1818011B1818021B181E049E1927
:10492000760076180B3618D4142E16DC0932FF32B6
:104930007E922FE0F043152104F0EAFCC0438CE79F
:1049400032680023A149A248FBF791FF3864A2E72F
:104950001A000B219B4808F027FA002E2CDD1521A8
:10496000300004F0ADFC819B03938300039A9446CE
:10497000634481931B687F931A00F932FF3280925F
:1049800042001018C200101A361A72009619F6006A
:104990009B197E937E9E8C49300008F06BFB0028AB
:1049A00001D1FFF7FBFB3268002388498848FBF7F9
:1049B0005EFF7864FFF7F2FBF043152104F0A8FCDA
:1049C000C043D0E71A0006217E4808F0EDF9002E1A
:1049D00070DD1521300004F073FC859B0393830088
:1049E000039A9446634485931A6883921300F933BB
:1049F000FF33849343001818C300181A361A730043
:104A00009E19F600961982967249829808F032FB38
:104A1000002801D1FFF7C2FB1B9B0393179B049354
:104A2000039B049A9B1A9B10013B5A00D318D80091
:104A3000C01A189B0393199B0493039B049A9A1A18
:104A4000D21093009B1819015B1819025B18190406
:104A50005B185B009A188218169B1499591AC91092
:104A60008B005B1818011B1818021B1818041B1860
:104A70005B005B18D218072A22D914998691159ADF
:104A80008792169B03938893179B039389938A1AA3
:104A9000D21093009B1818011B1818021B181E0433
:104AA0009E197600B61807360ED4142E0CDCA831E9
:104AB000869126E0F043152104F02AFCC0438CE7E0
:104AC0000721404808F070F9002E70DD15213000F4
:104AD00004F0F6FB899B03938300039A9446634496
:104AE00089931B6887931A00F932FF32889242003B
:104AF0001018C200101A361A72009619F6009B1987
:104B000086933549869808F0B5FA002801D1FFF759
:104B100045FB1B9B0393179B0493039B049A9B1ACF
:104B20009B10013B5A00D318D800C01A189B03935E
:104B3000199B0493039B049A9A1AD21093009B1812
:104B400019015B1819025B1819045B185B009A18AD
:104B50008218169B1499591AC9108B005B181801FA
:104B60001B1818021B1818041B185B005B18D218BE
:104B7000012A22D914998A91159A8B92169B039334
:104B80008C93179B03938D938A1AD21093009B18D2
:104B900018011B1818021B181E049E197600B6185F
:104BA00001361BD4142E19DC18318A9133E0F043FE
:104BB000152104F0ADFBC0438CE70121014808F04A
:104BC000F3F8C0467C1B0110E81C0110541C0110B6
:104BD000C9FF0010601C0110DC1A0110002E6ADDF4
:104BE0001521300004F06CFB8D9B03938300039A26
:104BF000944663448D931B688B931A00F932FF32FD
:104C00008C9242001018C200101A361A72009619BF
:104C1000F6009B198A938A9B98461B9B0393179BCC
:104C20000493039B049A9B1A9B10013B5A00D318D0
:104C3000D900C91A189B0393199B0493039B049AE8
:104C40009A1AD21093009B1818011B1818021B18EF
:104C500018041B185B009A188A18169B1499591A85
:104C6000C9108B005B1818011B1818021B181804B8
:104C70001B185B005B18D218022A22D914998E9156
:104C8000159B8F93169A03929092179A0392919282
:104C9000CB1AD810820012181301D2181302D2189E
:104CA0001304D3185B001B189E1C0ED4142E0CDCAE
:104CB00030318E9126E0F043152104F029FBC043EA
:104CC00092E70221E44808F06FF8002E6DDD15210F
:104CD000300004F0F5FA919B03938300039A944605
:104CE0006344919319688F910B00F933FF339093CC
:104CF00042001018C3001B1AF31A5A00D318DB0025
:104D0000CB188E938E9A41463800FBF723FB1B9BF2
:104D10000393179B0493039B049A9B1A9B10013BDC
:104D20005A00D318D800C01A189B0393199B0493F8
:104D3000039B049A9A1AD21093009B1819015B18CE
:104D400019025B1819045B185B009A188218169BED
:104D50001499591AC9108B005B1818011B181802F6
:104D60001B1818041B185B005B18D218032A22D9E1
:104D700014999291159A9392169B03939493179B6F
:104D8000039395938A1AD21093009B1818011B184D
:104D900018021B181E049E197600B61803360ED48E
:104DA000142E0CDC4831929126E0F043152104F0DA
:104DB000AFFAC0438FE70321A74807F0F5FF002EA5
:104DC0006ADD1521300004F07BFA959B0393830084
:104DD000039A9446634495931B6893931A00F9329F
:104DE000FF32949242001018C200101A361A720054
:104DF0009619F6009B199293929B98461B9B0393DE
:104E0000179B0493039B049A9B1A9B10013B5A0027
:104E1000D318D900C91A189B0393199B0493039BB9
:104E2000049A9A1AD21093009B1818011B181802A2
:104E30001B1818041B185B009A188A18169B1499E3
:104E4000591AC9108B005B1818011B1818021B187F
:104E500018041B185B005B18D218042A22D9149975
:104E60009691159B9793169A03929892179A03928C
:104E70009992CB1AD810820012181301D21813027B
:104E8000D2181304D3185B001B181E1D0ED4142E49
:104E90000CDC6031969126E0F043152104F038FADD
:104EA000C04392E704216C4807F07EFF002E6DDDC1
:104EB0001521300004F004FA999B03938300039AB0
:104EC000944663449993196897910B00F933FF3323
:104ED000989342001018C3001B1AF31A5A00D318F3
:104EE000DB00CB189693969A41463800FBF734FBCB
:104EF0001B9B0393179B0493039B049A9B1A9B1081
:104F0000013B5A00D318D800C01A189B0393199B71
:104F10000493039B049A9A1AD21093009B181901C8
:104F20005B1819025B1819045B185B009A18821849
:104F3000169B1499591AC9108B005B1818011B187D
:104F400018021B1818041B185B005B18D218052ADE
:104F500022D914999A91159A9B92169B03939C932C
:104F6000179B03939D938A1AD21093009B181801E4
:104F70001B1818021B181E049E197600B618053659
:104F80000ED4142E0CDC78319A9126E0F0431521D2
:104F900004F0BEF9C0438FE705212F4807F004FF56
:104FA000002E5BDD1521300004F08AF99D9B0393F0
:104FB0008300039A944663449D931B689B931A0055
:104FC000F932FF329C9242001018C200101A361AB1
:104FD00072009619F6009B199A939A9E7368092B92
:104FE00001D0FFF7DBF81A1E3ED033681B78303B48
:104FF0009800C01840007268012A39D933685B787C
:10500000303BC0180930182104F05AF979657268EC
:10501000022A31D933689A78303A93009B185B00A2
:105020007268032A2CD93268D2789B18303B3B65D2
:105030007268042A28D933681A79303A93009B1889
:105040005B007268052A23D932685279303A9B187E
:10505000FB64FFF7A3F8C0467C1B0110F043152149
:1050600004F056F9C043A1E70021B64807F09CFEC2
:105070000121B44807F098FE0221B24807F094FEDF
:105080000321B04807F090FE0421AE4807F08CFEE3
:105090000521AC4807F088FEAB490CA807F0EAFFF1
:1050A000002801D000F009FD1B9B0393179B04937C
:1050B000039B049A9B1A9B10013B5A00D318D800FB
:1050C000C01A189B0393199B0493039B049A9A1A82
:1050D000D21093009B1819015B1819025B18190470
:1050E0005B185B009A188218169B1499591AC910FC
:1050F0008B005B1818011B1818021B1818041B18CA
:105100005B005B18D318022B1CD914989E90159B3A
:105110009F93169A0392A092179A0392A192C31A90
:10512000D9108A0052181301D2181302D21813048E
:10513000D3185B005B189E1C09D4142E07DC30309A
:105140009E9021E01A000221804807F02DFE002EDB
:1051500071DD1521300004F0B3F8A19B03938300A7
:10516000039A94466344A19319689F910B00F93305
:10517000FF33A09342001018C3001B1AF31A5E00FD
:10518000F318DB00CB189E9371499E9807F072FFCD
:10519000002801D1FFF702F81B9B0393179B049390
:1051A000039B049A9B1A9B10013B5A00D318D8000A
:1051B000C01A189B0393199B0493039B049A9A1A91
:1051C000D21093009B1819015B1819025B1819047F
:1051D0005B185B009A188218169B1499591AC9100B
:1051E0008B005B1818011B1818021B1818041B18D9
:1051F0005B005B18D2180C2A23D91499A291159A36
:10520000A392169B0393A493179B0393A5938A1AC7
:10521000D21093009B1818011B1818021B181E04AB
:105220009E197600B6180C360FD4142E0DDC2131E1
:10523000FF31A29126E0F043152104F069F8C04344
:105240008BE70C21414807F0AFFD002E70DD1521E2
:10525000300004F035F8A59B03938300039A94462D
:105260006344A5931B68A3931A00F932FF32A492FA
:1052700042001018C200101A361A72009619F60071
:105280009B19A2933349A29807F0F4FE002801D19C
:10529000FEF784FF1B9B0393179B0493039B049AC5
:1052A0009B1A9B10013B5A00D318D800C01A189BB8
:1052B0000393199B0493039B049A9A1AD2109300A8
:1052C0009B1819015B1819025B1819045B185B0025
:1052D0009A188218169B1499591AC9108B005B18DA
:1052E00018011B1818021B1818041B185B005B1808
:1052F000D218012A22D91499A691159AA792169B21
:105300000393A893179B0393A9938A1AD21093002F
:105310009B1818011B1818021B181E049E197600F2
:10532000B618013618D4142E16DC1831A69130E0C8
:10533000F043152103F0ECFFC0438CE70121034843
:1053400007F032FD981A0110641C01107C1B01103B
:10535000601C0110DC1A0110002E6CDD15213000DC
:1053600003F0AEFFA99B03938300039A9446634422
:10537000A9931B68A7931A00F932FF32A892420042
:105380001018C200101A361A72009619F6009B19EE
:10539000A693A69E7368092B53D01B9B0393179B60
:1053A0000493039B049A9B1A9B10013B5A00D31849
:1053B000D800C01A189B0393199B0493039B049A6B
:1053C0009A1AD21093009B1819015B1819025B18E6
:1053D00019045B185B009A188218169B1499591AC5
:1053E000C9108B005B1818011B1818021B18180431
:1053F0001B185B005B18D218032A71D91499AA9163
:10540000159AAB92169B0393AC93179B0393AD93A2
:105410008A1AD21093009B1818011B1818021B1827
:105420001E049E197600B61803365DD4142E5BDC7C
:105430004831AA9175E0F043152103F069FFC0439C
:1054400090E71A1E34D033681B78303B9800C018A0
:1054500040007268012A2FD933685B78303BC0184E
:105460000930182103F02CFF79657268022A27D9C8
:1054700033689A78303A93009B185B007268032A6D
:1054800022D93268D2789B18303B3B657268042A77
:105490001ED933681A79303A93009B185B00726802
:1054A000052A19D932685279303A9B18FB6474E79F
:1054B0000021C14807F078FC0121BF4807F074FCC7
:1054C0000221BD4807F070FC0321BB4807F06CFCCB
:1054D0000421B94807F068FC0521B74807F064FCCF
:1054E0000321B64807F060FC002E6ADD152130006C
:1054F00003F0E6FEAD9B03938300039A9446634456
:10550000AD931B68AB931A00F932FF32AC924200A4
:105510001018C200101A361A72009619F6009B195C
:10552000AA93AA9B98461B9B0393179B0493039BE8
:10553000049A9B1A9B10013B5A00D318D900C91A30
:10554000189B0393199B0493039B049A9A1AD210F5
:1055500093009B1818011B1818021B1818041B181D
:105560005B009A188A18169B1499591AC9108B0057
:105570005B1818011B1818021B1818041B185B0075
:105580005B18D218042A22D91499AE91159BAF93B7
:10559000169A0392B092179A0392B192CB1AD8102E
:1055A000820012181301D2181302D2181304D31850
:1055B0005B001B181E1D0ED4142E0CDC6031AE9146
:1055C00026E0F043152103F0A3FEC04392E7042137
:1055D0007A4807F0E9FB002E6DDD1521300003F05D
:1055E0006FFEB19B03938300039A94466344B19387
:1055F0001968AF910B00F933FF33B09342001018D4
:10560000C3001B1AF31A5A00D318DB00CB18AE9351
:10561000AE9A41463800FAF79DFE1B9B0393179BF9
:105620000493039B049A9B1A9B10013B5A00D318C6
:10563000D800C01A189B0393199B0493039B049AE8
:105640009A1AD21093009B1819015B1819025B1863
:1056500019045B185B009A188218169B1499591A42
:10566000C9108B005B1818011B1818021B181804AE
:105670001B185B005B18D218052A22D91499B29125
:10568000159AB392169B0393B493179B0393B59308
:105690008A1AD21093009B1818011B1818021B18A5
:1056A0001E049E197600B61805360ED4142E0CDC96
:1056B0007831B29126E0F043152103F029FEC04372
:1056C0008FE705213D4807F06FFB002E6ADD1521AD
:1056D000300003F0F5FDB59B03938300039A9446D5
:1056E0006344B5931B68B3931A00F932FF32B49246
:1056F00042001018C200101A361A72009619F600ED
:105700009B19B293B29B98461B9B0393179B0493E0
:10571000039B049A9B1A9B10013B5A00D318D90093
:10572000C91A189B0393199B0493039B049A9A1A12
:10573000D21093009B1818011B1818021B1818048C
:105740001B185B009A188A18169B1499591AC910CD
:105750008B005B1818011B1818021B1818041B1863
:105760005B005B18D218062A22D91499B691159BB2
:10577000B793169A0392B892179A0392B992CB1ADA
:10578000D810820012181301D2181302D218130471
:10579000D3185B001B189E1D12D4142E10DC903100
:1057A000B6912AE0F043152103F0B2FDC04392E721
:1057B0000621024807F0F8FA981A01107C1B011024
:1057C000002E6DDD1521300003F07AFDB99B0393A7
:1057D0008300039A94466344B9931968B7910B0008
:1057E000F933FF33B89342001018C3001B1AF31AA1
:1057F0005A00D318DB00CB18B693B69A414638004E
:10580000FAF7AAFE1B9B0393179B0493039B049A2E
:105810009B1A9B10013B5A00D318D800C01A189B42
:105820000393199B0493039B049A9A1AD210930032
:105830009B1819015B1819025B1819045B185B00AF
:105840009A188218169B1499591AC9108B005B1864
:1058500018011B1818021B1818041B185B005B1892
:10586000D218072A22D91499BA91159ABB92169B7D
:105870000393BC93179B0393BD938A1AD210930092
:105880009B1818011B1818021B181E049E1976007D
:10589000B61807360ED4142E0CDCA831BA9126E0C7
:1058A000F043152103F034FDC0438FE70721B048D2
:1058B00007F07AFA002E6FDD1521300003F000FDAD
:1058C000BD9B03938300039A94466344BD931B6876
:1058D000BB931A00F932FF32BC9242001018C2008A
:1058E000101A361A72009619F6009B19BA93BA9ECE
:1058F000A049300007F0BEFB002853D11B9B039347
:10590000179B0493039B049A9B1A9B10013B5A001C
:10591000D318D800C01A189B0393199B0493039BB8
:10592000049A9A1AD21093009B1819015B18190255
:105930005B1819045B185B009A188218169B14995F
:10594000591AC9108B005B1818011B1818021B1874
:1059500018041B185B005B18D218092A30D9149957
:10596000BE91159ABF92169B0393C093179B039306
:10597000C1938A1AD21093009B1818011B181802A1
:105980001B181E049E197600B61809361CD4142E56
:105990001ADCD831BE9134E0F043152103F0B8FC95
:1059A000C0438DE73268002373497448FAF75FFFFC
:1059B000734904F0F4FB734904F0DBFBB8649DE722
:1059C00009216B4807F0F0F9002E58DD1521300051
:1059D00003F076FCC19B03938300039A94466344CF
:1059E000C1931B68BF931A00F932FF32C092420084
:1059F0001018C200101A361A72009619F6009B1978
:105A0000BE93BE994B68062B01D0FEF7C7FB1A1E4A
:105A10003BD00B681A78303A93009B185B004A68B9
:105A2000012A36D90A685278303A9B18BB654A6811
:105A3000022A32D90B689A78303A93009B185B009F
:105A40004A68032A2DD90A68D278303A9B18FB6538
:105A50004A68042A29D90B681A79303A93009B18AE
:105A60005B00FA22D200944663444A68052A20D992
:105A70000A685279303A9B183B66FEF78FFBF04379
:105A8000152103F045FCC043A4E700213E4807F080
:105A90008BF901213C4807F087F902213A4807F0C9
:105AA00083F90321384807F07FF90421364807F0CD
:105AB0007BF90521344807F077F934490CA807F041
:105AC000D9FA002801D0FEF769FB1B9B0393179BB3
:105AD0000493039B049A9B1A9B10013B5A00D31812
